:1000000069EF1AF00000000000EF00F000000000AF
:0A0010000000000000000000F3D71C
:10001C0015C4C9FFC7B002D00000FCD7C9CF00F08F
:02002C001200C0
:10002E00F250026EF29E0500FF6A0150FE6E005005
:08003E00FD6E02BEF28E1200FD
:10004600400E04010D25006E87C0E1FF88C0E2FF67
:1000560000C0E6FF85C000F086C001F0E5DF87C07E
:10006600E1FF88C0E2FF11C4E6FF85C000F086C04C
:1000760001F0DADF87C0E1FF88C0E2FF10C4E6FFC7
:1000860085C000F086C001F0CFDF87C0E1FF88C0E1
:10009600E2FF0FC4E6FF85C000F086C001F0C4DFB2
:1000A60087C0E1FF88C0E2FF0EC4E6FF85C000F00E
:1000B60086C001F0B9DF87C0E1FF88C0E2FF12C445
:1000C600E6FF85C000F086C001F0AEDF0401136BC9
:1000D600146B87C0E1FF88C0E2FFFF0EE66E85C0A5
:1000E60000F086C001F0A0DF00C000F40401134B4D
:1000F600142B800E0014016E0150000A07E0000E5A
:10010600145D02E1640E135D01E2E3D700C400F062
:020116001200D5
:040118008B901200B6
:10011C008B8087C0E1FF88C0E2FFFF0EE66E85C0D2
:0A012C0000F086C001F07DDF120034
:1001360087C0E1FF88C0E2FFFF0EE66E85C000F0D3
:1001460086C001F071DF0050FE0A01E0F1D712000F
:10015600E0DF000E000A02E1040E1A1809E101C4EC
:1001660005F402C406F403C407F404C408F414D066
:10017600090E006E01C405F402C406F403C407F4B4
:1001860004C408F4005008E0040105370591063759
:1001960007370837FF0FF7D70401120E0D6F05C496
:1001A6000EF406C40FF407C410F408C411F4FF0ECD
:1001B600126F46DF005204E0AEDF010E006E01D082
:0401C600006A1200B9
:1001CA00086A096A100E0C6E0134083609360450A2
:1001DA00085E0550D8A0053C095ED8B007D0045087
:1001EA0008260550D8B0053C0926D89000360136B5
:0601FA000C2EEAD71200F2
:1002000001C4E9FF02C4EAFFEE5211E001C4E9FFB4
:1002100002C4EAFF03C4D9FF04C4DAFFEE50DE18BB
:1002200006E10401014B022B034B042BE9D701C467
:10023000E9FF02C4EAFF03C4D9FF04C4DAFFDE50B9
:0C024000EE5C006E016A000E015A120014
:10024C000301FE51200A09E0FE510D0804E3090EDA
:10025C00FE5D01E302D0006A02D0010E006E1200B6
:10026C0001C402F002C403F004C400F005C401F0A0
:10027C00010E0401045F000E055B0050011009E043
:10028C0002C0E1FF03C0E2FF03C4E6FF024A032AF7
:0C029C00EBD701C400F002C401F0120016
:1002A80003C404F004C405F001C402F002C403F05E
:1002B80005C400F006C401F0010E0401055F000E3C
:1002C800065B005001100FE004C0E9FF05C0EAFF1B
:1002D80002C0E1FF03C0E2FFEECFE6FF024A032AB5
:1002E800044A052AE5D701C400F002C401F012004F
:1002F8000B6A0A6A096A00500402F4CF09F0F3CFC6
:1003080008F001500502F4CF0BF0F3CF0AF00050CB
:100318000502F3500926F4500A22E86A0B2201501C
:100328000402F3500926F4500A22E86A0B2208C096
:1003380000F009C001F00AC002F00BC003F012007F
:10034800010E0301FE25E96E000EFF21EA6EEECFD5
:1003580003F0000E046E000E046E03C001F0006A84
:1003680000C003F001C004F0FEC3D9FFFFC3DAFFE9
:10037800DE500026000E012200C003F001C004F088
:0A03880000C003F001C004F01200F1
:10039200030E0301FE25E96E000EFF21EA6EEECF89
:1003A20009F0000E0A6E0B6E0C6E000E0A6E0B6EDA
:1003B2000C6E0BC003F00AC002F009C001F0006A23
:1003C20000C009F001C00AF002C00BF003C00CF03B
:1003D200020EFE25D96E000EFF21DA6EDE500024D9
:1003E200056E000E0120066E000E0220076E000E42
:1003F2000320086E05C009F006C00AF007C00BF022
:1004020008C00CF007C003F006C002F005C001F0FE
:10041200006A00C009F001C00AF002C00BF003C07C
:100422000CF0010EFE25D96E000EFF21DA6EDE50B1
:100432000024056E000E0120066E000E0220076EDB
:10044200000E0320086E05C009F006C00AF007C0BE
:100452000BF008C00CF007C003F006C002F005C0A4
:1004620001F0006A00C009F001C00AF002C00BF0FE
:1004720003C00CF0FEC3D9FFFFC3DAFFDE50002633
:10048200000E01220222032200C009F001C00AF07C
:1004920002C00BF003C00CF000C009F001C00AF06A
:0A04A20002C00BF003C00CF01200C2
:1004AC0044DE0401016B026B020E025D02E1000EE0
:1004BC00015D1FE201510301FE250401036F02518E
:1004CC000301FF210401046F87C0E1FF88C0E2FF34
:1004DC00FF0EE66E85C000F086C001F0A2DD03C4FD
:1004EC00E1FF04C4E2FF00C0E6FF0401014B022B54
:1004FC00DBD787C0E1FF88C0E2FFFF0EE66E85C048
:10050C0000F086C001F08DDD87C0E1FF88C0E2FFFE
:10051C00FF0EE66E85C000F086C001F082DD120091
:10052C00F5DD000E000A02E1040E1A1809E101C4FF
:10053C0007F402C408F403C409F404C40AF414D084
:10054C00090E006E01C407F402C408F403C409F4D4
:10055C0004C40AF4005008E0040107370791083777
:10056C0009370A37FF0FF7D70401110E0D6F07C4B7
:10057C000EF408C40FF409C410F40AC411F4FF0EED
:10058C00126F5BDD005204E0C3DD010E006E4ED035
:10059C0087C0E1FF88C0E2FFFF0EE66E85C000F069
:1005AC0086C001F03EDD0050FE0A01E0F1D70301E8
:1005BC00FE6BFF6B020EFF5D02E1000EFE5D1EE2A4
:1005CC00FE51040105250B6F0301FF5104010621A7
:1005DC000C6F87C0E1FF88C0E2FFFF0EE66E85C09E
:1005EC0000F086C001F01DDD0BC4E1FF0CC4E2FF7E
:1005FC0000C0E6FF0301FE4BFF2BDCD787C0E1FFF9
:10060C0088C0E2FFFF0EE66E85C000F086C001F0E8
:10061C0008DD87C0E1FF88C0E2FFFF0EE66E85C0F3
:0E062C0000F086C001F0FDDC73DD006A1200F4
:10063A006EDD000E000A02E1040E1A1809E101C477
:10064A0007F402C408F403C409F404C40AF414D075
:10065A00090E006E01C407F402C408F403C409F4C5
:10066A0004C40AF4005008E0040107370791083768
:10067A0009370A37FF0FF7D70401180E0D6F07C4A1
:10068A000EF408C40FF409C410F40AC411F4FF0EDE
:10069A00126FD4DC005204E03CDD010E006E8ED0F5
:1006AA0087C0E1FF88C0E2FFFF0EE66E85C000F05A
:1006BA0086C001F0B7DC87C0E1FF88C0E2FFFF0E09
:1006CA00E66E85C000F086C001F0ACDC87C0E1FFB1
:1006DA0088C0E2FFFE0EE66E85C000F086C001F01B
:1006EA00A1DC0301FE6BFF6BFF51010802E1FE5121
:1006FA00FF0818E3FE5104010525E96E0301FF51C5
:10070A0004010621EA6E87C0E1FF88C0E2FFEECF4E
:10071A00E6FF85C000F086C001F084DC0301FE4BD1
:10072A00FF2BE2D787C0E1FF88C0E2FFFF0EE66E2B
:10073A0085C000F086C001F075DC87C0E1FF88C083
:10074A00E2FFFF0EE66E85C000F086C001F06ADCAB
:10075A0087C0E1FF88C0E2FFFF0EE66E85C000F0A9
:10076A0086C001F05FDC00C0FEF3000E0301FF6FDC
:10077A001F0EFE15016EFFC302F0000E021601C025
:10078A00FEF302C0FFF3000E021802E1050E011883
:10079A0004E0BFDC020E006E11D087C0E1FF88C002
:1007AA00E2FFFF0EE66E85C000F086C001F03ADC7B
:0E07BA000050FF0A01E0F1D7ACDC006A12002B
:1007C80087C0E1FF88C0E2FF4C0EE66E85C000F0EE
:1007D80086C001F028DC87C0E1FF88C0E2FFE66A36
:1007E80085C000F086C001F01EDC87C0E1FF88C02C
:1007F800E2FFE66A85C000F086C001F014DC87C01D
:10080800E1FF88C0E2FFE66A85C000F086C001F01B
:100818000ADC87C0E1FF88C0E2FFE66A85C000F015
:1008280086C001F000DC87C0E1FF88C0E2FFFF0E50
:10083800E66E85C000F086C001F017EC00F00401F8
:10084800016B026B87C0E1FF88C0E2FFFF0EE66E16
:1008580085C000F086C001F017EC00F000C0FEF380
:100868000401014B022B800E0014016E0150000A96
:1008780007E0000E025D02E1640E015D01E2E2D7CD
:100888000301FEAF04D046DCFEC300F013D087C0DE
:10089800E1FF88C0E2FFFF0EE66E85C000F086C06B
:1008A80001F017EC00F000C0FEF30050000AEFE082
:0608B80031DC006A1200B1
:1008BE00EF0E0301FA6F030EFB6FEDC3FCF3EEC3F5
:1008CE00FDF3EF0E0401016F030E026F200E036F96
:1008DE000B0E046F000E056FC2DCEDC3E9FFEEC315
:1008EE00EAFFEE520CE0EDC3E9FFEEC3EAFFEECFF6
:1008FE00FEF3A5DC005203E0ED4BEE2BEED7EDC37D
:10090E0001F4EEC302F4170E0401036F000E046F20
:10091E0070DC000E011802E1000E001806E12E0E2A
:10092E000301EF6F2E0EF06F5ED0EDC301F4EEC338
:10093E0002F4150E0401036F000E046F5ADC000E54
:10094E00011802E1000E001804E12E0E0301EF6FF4
:10095E004AD0EDC3E9FFEEC3EAFFEE521FE0EDC34E
:10096E00E9FFEEC3EAFFEECFFEF369DC005216E1BB
:10097E00EDC3E9FFEEC3EAFFEE502E0A0FE0EDC322
:10098E00E9FFEEC3EAFFFAC3E1FFFBC3E2FFEECFDE
:10099E00E6FFFA4BFB2BED4BEE2BDBD7EDC3E9FF5E
:1009AE00EEC3EAFFEE502E0A03E10301ED4BEE2BF0
:1009BE000301F70EFA6F030EFB6FEDC3E9FFEEC3F3
:1009CE00EAFFEE5020080FE2EDC3E9FFEEC3EAFFA7
:1009DE00FAC3E1FFFBC3E2FFEECFE6FFFA4BFB2BC0
:1009EE00ED4BEE2BEAD7FCC301F4FDC302F4EF0E80
:1009FE000401036F030E046F0B0E056F000E066FDE
:040A0E004CDC1200AA
:100A1200D3C004F0D4C005F0EDC300F0EEC301F082
:100A2200E5EC00F000C0F5F301C0F6F3000E03019F
:100A3200F76FF86F01010E510301F525006E0101F8
:100A42000F510301F621016E010110510301F7213B
:100A5200026E010111510301F821036E00C0F5F38A
:100A620001C0F6F302C0F7F303C0F8F3010E1E6FE4
:100A720000C001F401C002F402C003F403C004F494
:100A82001E0E0401056F010E066F4FDD005208E0D5
:100A9200100E0101006FFF0E006EFF0E016E8FD06F
:100AA200D3C004F0D4C005F0EDC300F0EEC301F0F2
:100AB200E5EC00F008C000F009C001F000C0F3F35B
:100AC20001C0F4F300C002F001C003F0023602904C
:100AD200033602C0F3F303C0F4F31E0E0224E16EE8
:100AE200010E0320E26EEFC3E6FF010E0301F325C0
:100AF200006E000EF421016E1E0E0024E16E010E46
:100B02000120E26EF0C3E6FFF5C301F4F6C302F47E
:100B1200F7C303F4F8C304F41E0E0401056F010EBB
:100B2200066F8ADD005208E0050E0101006FFF0E1C
:100B3200006EFF0E016E43D0010E0301F16F000E35
:100B4200F26F000EF25D04E1010109510301F15D52
:100B520034E201010C510301F525006E01010D5132
:100B62000301F621016E000EF721026E000EF8213C
:100B7200036E00C0F5F301C0F6F302C0F7F303C041
:100B8200F8F300C001F401C002F402C003F403C090
:100B920004F41E0E0401056F010E066F4DDD0052B6
:100BA20008E0050E0101006FFF0E006EFF0E016EE0
:100BB20006D00301F14BF22BC4D7006A016A12007E
:100BC2000301ED517A0804E3610EED5DD8B0ED9BAF
:060BD200EDC300F012006B
:100BD800EDC3F1F3EEC3F2F3EFC3F3F3F0C3F4F3B1
:100BE8000301F56BF66B000EF65D02E1080EF55D8C
:100BF80019E2F1C3E9FFF2C3EAFFEE50200A01E16E
:100C080011D0F1C3E9FFF2C3EAFFF3C3E1FFF4C374
:100C1800E2FFEECFE6FFF34BF42BF14BF22BF54B53
:100C2800F62BE1D7080EED25016E000EEE21026EBF
:100C380001C0F1F302C0F2F301C0E9FF02C0EAFF0C
:100C4800EE50200A29E0F3C3E1FFF4C3E2FF2E0EC1
:100C5800E66EF34BF42BF56BF66B000EF65D02E1D6
:100C6800030EF55D19E2F1C3E9FFF2C3EAFFEE50A6
:100C7800200A01E111D0F1C3E9FFF2C3EAFFF3C38F
:100C8800E1FFF4C3E2FFEECFE6FFF34BF42BF14BA9
:100C9800F22BF54BF62BE1D7F3C3E1FFF4C3E2FFE8
:100CA800E66A0D0EEF25E16E000EF021E26E0B0EE6
:100CB800ED25E96E000EEE21EA6EEECFE6FF1A0E84
:100CC800EF25F76F000EF021F86F1C0EED25FE6F73
:100CD800000EEE21FF6FC9EC01F0F7C3E1FFF8C386
:100CE800E2FF00C0E6FF01C0E6FF02C0E6FF03C066
:100CF800E6FF1E0EEF25F76F000EF021F86F1A0EB3
:100D0800ED25FE6F000EEE21FF6FA4EC01F0F7C396
:100D1800E1FFF8C3E2FF00C0E6FF01C0E6FF0E0EE8
:100D2800ED25006E000EEE21016E00C0E9FF01C046
:100D3800EAFFEECF04F0010E0024E96E000E012058
:100D4800EA6EEECF03F003C001F0006A04500024FD
:100D5800036E000E0120046E03C0F5F304C0F6F321
:100D68000E0EEF25006E000EF021016E030E00241A
:100D7800E16E000E0120E26E0B0E026E03C000F061
:100D880004C001F0025005E001320032019EFF0F5D
:100D9800FAD700C0E6FF0E0EEF25006E000EF02118
:100DA800016E040E0024E16E000E0120E26E050EB5
:100DB800026EF5C300F0F6C301F0025005E00132FF
:100DC8000032019EFF0FFAD73F0E0014006E00C0DC
:100DD800E6FF0E0EEF25006E000EF021016E050EE7
:100DE8000024E16E000E0120E26E1F0EF515026E62
:100DF80002C000F00036009000C0E6FF100EED259E
:100E0800006E000EEE21016E00C0E9FF01C0EAFF8E
:100E1800EECF04F0010E0024E96E000E0120EA6E08
:100E2800EECF03F003C001F0006A04500024026E04
:100E3800000E0120036E02C0F5F303C0F6F30E0E98
:100E4800EF25006E000EF021016E020E0024E16E07
:100E5800000E0120E26E1F0E0214006E00C0E6FFB5
:100E68000E0EEF25006E000EF021016E010E00241B
:100E7800E16E000E0120E26E050E026EF5C300F071
:100E8800F6C301F0025005E001320032019EFF0F67
:100E9800FAD70F0E0014006E00C0E6FF0E0EEF2505
:100EA800E16E000EF021E26E090E026EF5C300F04D
:100EB800F6C301F0025005E001320032019EFF0F37
:100EC800FAD700C0E6FF160EED25006E000EEE21E3
:100ED800016E00C0E9FF01C0EAFFEECF04F0010E89
:100EE8000024E96E000E0120EA6EEECF03F003C085
:100EF80001F0006A04500024036E000E0120046E05
:100F080003C0F5F304C0F6F3140EEF25006E000ECF
:100F1800F021016E030E0024E16E000E0120E26E46
:100F28000B0E026E03C000F004C001F0025005E091
:100F380001320032019EFF0FFAD700C0E6FF140EFF
:100F4800EF25006E000EF021016E040E0024E16E04
:100F5800000E0120E26E050E026EF5C300F0F6C326
:100F680001F0025005E001320032019EFF0FFAD76E
:100F78003F0E0014006E00C0E6FF140EEF25006E51
:100F8800000EF021016E050E0024E16E000E012016
:100F9800E26E1F0EF515026E02C000F000360090DA
:100FA80000C0E6FF180EED25006E000EEE21016E62
:100FB80000C0E9FF01C0EAFFEECF04F0010E0024F3
:100FC800E96E000E0120EA6EEECF03F003C001F0D7
:100FD800006A04500024026E000E0120036E02C055
:100FE800F5F303C0F6F3140EEF25006E000EF021A2
:100FF800016E020E0024E16E000E0120E26E1F0E4B
:101008000214006E00C0E6FF140EEF25006E000EFD
:10101800F021016E010E0024E16E000E0120E26E47
:10102800050E026EF5C300F0F6C301F0025005E0AC
:1010380001320032019EFF0FFAD70F0E0014006E26
:1010480000C0E6FF140EEF25E16E000EF021E26EFF
:10105800090E026EF5C300F0F6C301F0025005E078
:1010680001320032019EFF0FFAD700C0E6FF1200DE
:10107800F1C301F0F2C302F0010E0301F15F000EAB
:10108800F25B000E021802E1000E01181FE0EDC32A
:10109800E9FFEEC3EAFFEFC3D9FFF0C3DAFFEE5072
:1010A800DE180FE0EDC3E9FFEEC3EAFFEFC3D9FF97
:1010B800F0C3DAFFDE50EE5C006E016A000E015AE2
:1010C80007D0ED4BEE2BEF4BF02BD2D7006A016A1D
:0210D800120004
:1010DA00EDC302F0EEC303F002C000F003C001F05A
:1010EA00024A032A00C0E9FF01C0EAFFEE5201E00A
:1010FA00F3D70301ED51025C006EEE510358016E05
:0A110A00010E005E000E015A1200F3
:101114000CC100F00DC101F0D3C004F0D4C005F03F
:101124007CEC01F000C0EDF301C0EEF3020E03010C
:10113400EF6F000EF06FD3C004F0D4C005F0020EC0
:10114400006E000E016EE5EC00F000C0F1F301C08A
:10115400F2F3000EF36FF46F01010E510301F12558
:10116400F76F01010F510301F221F86F01011051D2
:101174000301F321F96F010111510301F421FA6F05
:10118400F7C3F1F3F8C3F2F3F9C3F3F3FAC3F4F3D7
:10119400D3C004F0D4C005F0020E006E000E016E40
:1011A400E5EC00F008C000F009C001F000C002F056
:1011B40001C003F00236029003361E0E0224F56FBE
:1011C400010E0320F66FF7C301F4F8C302F4F9C368
:1011D40003F4FAC304F4ABEC00F0010E03011E6F38
:1011E4001E0EFE6F010EFF6F56EC02F00301EE516E
:1011F400F05D02E1ED51EF5D2EE2F5C3E9FFF6C3C8
:10120400EAFFEECF01F0EECF02F0000E021802E189
:10121400000E011801E11FD0020EF525016E000E2B
:10122400F621026E01C0F5F302C0F6F3EF4BF02B8A
:1012340002500101021902E1015101180BE11E0ED5
:101244000301F56F010EF66F1E0EFE6F010EFF6FA8
:1012540056EC02F0CBD7E4EC03F0005208E0100E99
:101264000101006FFF0E006EFF0E016E10D003012E
:10127400F051EE1902E1ED51EF1905E1FF0E006E98
:10128400FF0E016E04D0EFC300F0F0C301F01200B2
:10129400220E0C6E086A096A0A6A0B6A0C06D8B434
:1012A4001FD0D8900B320A3209320832033202328C
:1012B40001320032D8A0F2D70C06D8B409D00450B9
:1012C40008260550092206500A2207500B22EAD7A5
:1012D400045008260550092206500A2207500B2202
:0212E4001200F6
:0E12E600ACB202D00000FCD7EDC3ADFF120089
:1012F400EDC3C9FFC7B002D00000FCD7C9CF00F0CE
:021304001200D5
:101306000301E76BE86BE96BEA6BDD51DE1103E184
:10131600FF0E006EE2D0DDC3EDF3DEC3EEF35FEC4D
:1013260004F00001FD51010115190EE10001FC5107
:101336000101141909E10001FB510101131904E12E
:101346000001FA510101121905E10AC1E3F30BC1CB
:10135600E4F30ED005C100F006C101F07DC004F033
:101366007EC005F07CEC01F000C0E3F301C0E4F3BD
:10137600FAC0E7F3FBC0E8F3FCC0E9F3FDC0EAF30B
:101386001E0E0301E56F010EE66FFAC001F4FBC005
:1013960002F4FCC003F4FDC004F4ABEC00F0010E53
:1013A60003011E6F1E0EFE6F010EFF6F56EC02F05C
:1013B6000301E16BE26BE451E25D02E1E351E15DC1
:1013C600D8B07FD0E5C3EDF3E6C3EEF3DDC3EFF3AC
:1013D600DEC3F0F30B0EF16F000EF26F4ADE000E65
:1013E600011802E1000E001845E1E4EC03F000529A
:1013F60006E0100E0101006FFF0E006E6ED00301B5
:10140600DF51E01135E0E5C3EDF3E6C3EEF3DFC3EC
:10141600EFF3E0C3F0F3ECEC05F0200EDF25E16E10
:10142600000EE021E26EE7C3E6FFE8C3E6FFE9C38C
:10143600E6FFEAC3E6FF240EDF25E16E000EE0219B
:10144600E26E1E0EE55D036E010EE659046E050E94
:10145600026E03C000F004C001F0025005E0013244
:101466000032019EFF0FFAD700C0E6FF01C0E6FF7B
:10147600006A33D00301200EE525016E000EE62139
:10148600026E01C0E5F302C0E6F302500101021943
:1014960002E10151011811E1010E0301E727000ED7
:1014A600E823E923EA231E0EE56F010EE66F1E0E02
:1014B600FE6F010EFF6F56EC02F00301E14BE22BCB
:1014C6007AD7E4EC03F0005206E0100E0101006F3B
:0C14D600FF0E006E02D0FF0E006E120030
:1014E2000301E16B0D0EE15D18E2E151DD25E26FD2
:1014F200000EDE21E36FE151DF25E96E000EE021EF
:10150200EA6EEECFEDF3E1EC05F0E2C3E1FFE3C3F7
:0C151200E2FF00C0E6FFE12BE5D712006D
:10151E00DDC3EDF3DEC3EEF3D9DD00C0DFF3005023
:10152E00000A03E1FF0E006E5AD0DF510C0803E2F1
:10153E00FE0E006E54D0DDC3D9FFDEC3DAFF2E0ED1
:10154E00DE1803E1FD0E006E4AD0E16BDDC3E2F35F
:10155E00DEC3E3F3DFC3E0F3E051000820E2E05125
:10156E00DD25D96E000EDE21DA6E2E0EDE1815E1A7
:10157E00010EE16FE051080803E2FC0E006E2FD061
:10158E00E051010F006E016A000E01220050DD25B0
:10159E00E26F0150DE21E36F02D0E007DDD7010ECE
:1015AE00E11906E0DF51080803E2FB0E006E17D0CA
:1015BE00010EE11913E1E2C3EDF3E3C3EEF386DDB1
:1015CE0000C0DFF30050000A03E1F50E006E07D0F5
:1015DE00DF51030803E2F40E006E01D0006A120020
:1015EE00D3C004F0D4C005F0DDC300F0DEC301F0BB
:1015FE00E5EC00F000C0DFF301C0E0F3000E0301E4
:10160E00E16FE26F01010E510301DF25006E010152
:10161E000F510301E021016E010110510301E1217F
:10162E00026E010111510301E221036E00C0DFF3CE
:10163E0001C0E0F302C0E1F303C0E2F3010E1E6F3E
:10164E0000C001F401C002F402C003F403C004F4AC
:10165E001E0E0401056F010E066F96EC02F000528D
:10166E0008E0100E0101006FFF0E006EFF0E016EFE
:10167E0022D0D3C004F0D4C005F0DDC300F0DEC329
:10168E0001F0E5EC00F008C000F009C001F000C068
:10169E0002F001C003F00236029003361E0E022441
:1016AE000301FE6F010E0320FF6FA4EC01F000C0DA
:0816BE00DDF301C0DEF31200B0
:1016C6001A0E0301DD25FE6F000EDE21FF6FA4EC6E
:1016D60001F0E1C3E1FFE2C3E2FF00C0E6FF01C0A3
:1016E600E6FFE1C3E9FFE2C3EAFFEECF00F0EECF8B
:1016F60001F0005001102CE10ADDE1C3E1FFE2C375
:10170600E2FF00C0E6FF01C0E6FFE1C3E9FFE2C376
:10171600EAFFEECF01F0EECF02F00250FF0A02E13F
:10172600FF0E011806E1040E0101006FFF0E006EA8
:1017360086D1E1C3E9FFE2C3EAFFEECFEDF3EECFD8
:10174600EEF3FF0E0301EF6FFF0EF06F09EC05F0ED
:10175600E1C3E9FFE2C3EAFFEECF00F0EECF01F00E
:10176600000E026E036E020E005E000E015A025A51
:10177600035A05C104F006C105F0000E066E076E99
:1017860086DDDFC3E1FFE0C3E2FF0050010116255D
:10179600E66E01501721E66E02501821E66E0350E0
:1017A6001921E66E0001FD51010115190EE1000136
:1017B600FC510101141909E10001FB510101131942
:1017C60004E10001FA510101121905E10AC1E5F32C
:1017D6000BC1E6F30ED005C100F006C101F07DC0D5
:1017E60004F07EC005F07CEC01F000C0E5F301C01A
:1017F600E6F3FAC0E9F3FBC0EAF3FCC0EBF3FDC085
:10180600ECF31E0E0301E76F010EE86FFAC001F458
:10181600FBC002F4FCC003F4FDC004F4ABEC00F022
:10182600010E03011E6F1E0EFE6F010EFF6F56ECBA
:1018360002F00301E36BE46BE651E45D02E1E5517E
:10184600E35DD8B0EDD0E7C3E9FFE8C3EAFFEECF2A
:1018560001F00150E50A0AE0E7C3E9FFE8C3EAFF41
:10186600EECF01F0200E015C01E3B3D0E4EC03F00F
:10187600005206E0100E0101006FFF0E006EDFD071
:10188600E7C301F4E8C302F4DDC303F4DEC304F4E2
:10189600200E0401056F000E066F54EC01F01A0EBF
:1018A6000301E725E16E000EE821E26EE1C3E9FFE0
:1018B600E2C3EAFFFF0EEE14006E00C0E6FF1A0E4A
:1018C600E725006E000EE821016E010E0024E16E90
:1018D600000E0120E26EE1C3E9FFE2C3EAFFEECFAC
:1018E60003F0EECF04F004C000F0016A00C0E6FF8A
:1018F6000E0EE725E16E000EE821E26E95C0E6FFCA
:101906000E0EE725006E000EE821016E010E002482
:10191600E16E000E0120E26E96C0E6FF100EE7258E
:10192600E16E000EE821E26E97C0E6FF100EE72595
:10193600006E000EE821016E010E0024E16E000E1D
:101946000120E26E98C0E6FF160EE725E16E000E56
:10195600E821E26E95C0E6FF160EE725006E000E42
:10196600E821016E010E0024E16E000E0120E26EF8
:1019760096C0E6FF180EE725E16E000EE821E26E3E
:1019860097C0E6FF180EE725006E000EE821016EEF
:10199600010E0024E16E000E0120E26E98C0E6FF03
:1019A600E9C301F4EAC302F4EBC303F4ECC304F4A1
:1019B6001E0E0401056F010E066F1DEC03F00052AA
:1019C60006E0050E0101006FFF0E006E38D0006ABA
:1019D60036D0200E0301E725016E000EE821026EC7
:1019E60001C0E7F302C0E8F302500101021902E167
:1019F6000151011811E1010E0301E927000EEA2346
:101A0600EB23EC231E0EE76F010EE86F1E0EFE6F32
:101A1600010EFF6F56EC02F00301E34BE42B0CD7EB
:101A2600E4EC03F0005206E0100E0101006FFF0E19
:101A3600006E05D00101060E006FFF0E006E12004B
:101A46000B6A0A6A096A086A0E6A03340836045081
:101A5600085E0550D8A0053C095E0650D8A0063C95
:101A66000A5E0750D8A0073C0B5EE86AD8A0010EB4
:101A76000E5E0336070E0C6E0334083609360A3638
:101A86000B360E36045003A012D0085E0550D8A0BF
:101A9600053C095E0650D8A0063C0A5E0750D8A051
:101AA600073C0B5EE86AD8A0010E0E5E11D0082630
:101AB6000550D8B0053C09260650D8B0063C0A2683
:101AC6000750D8B0073C0B26E86AD8B0010E0E26A0
:101AD60003360C2ED1D70234083609360A360B36B1
:101AE6000E36045003A012D0085E0550D8A0053C5F
:101AF600095E0650D8A0063C0A5E0750D8A0073CEF
:101B06000B5EE86AD8A0010E0E5E11D008260550BD
:101B1600D8B0053C09260650D8B0063C0A26075020
:101B2600D8B0073C0B26E86AD8B0010E0E2602365E
:101B3600070E0C6E0234083609360A360B360E3698
:101B4600045002A012D0085E0550D8A0053C095EDC
:101B56000650D8A0063C0A5E0750D8A0073C0B5E8C
:101B6600E86AD8A0010E0E5E11D008260550D8B03E
:101B7600053C09260650D8B0063C0A260750D8B0C0
:101B8600073C0B26E86AD8B0010E0E2602360C2E4C
:101B9600D1D70134083609360A360B360E360450CC
:101BA60002A012D0085E0550D8A0053C095E06507A
:101BB600D8A0063C0A5E0750D8A0073C0B5EE86A30
:101BC600D8A0010E0E5E11D008260550D8B0053CEF
:101BD60009260650D8B0063C0A260750D8B0073C5E
:101BE6000B26E86AD8B0010E0E260136070E0C6EDB
:101BF6000134083609360A360B360E36045001A073
:101C060012D0085E0550D8A0053C095E0650D8A043
:101C1600063C0A5E0750D8A0073C0B5EE86AD8A0CF
:101C2600010E0E5E11D008260550D8B0053C0926D7
:101C36000650D8B0063C0A260750D8B0073C0B26FB
:101C4600E86AD8B0010E0E2601360C2ED1D7003424
:101C5600083609360A360B360E36045001A012D065
:101C6600085E0550D8A0053C095E0650D8A0063C83
:101C76000A5E0750D8A0073C0B5EE86AD8A0010EA2
:101C86000E5E11D008260550D8B0053C0926065030
:101C9600D8B0063C0A260750D8B0073C0B26E86A9F
:101CA600D8B0010E0E260036070E0C6E003408362C
:101CB60009360A360B360E36045000A012D0085EDE
:101CC6000550D8A0053C095E0650D8A0063C0A5E21
:101CD6000750D8A0073C0B5EE86AD8A0010E0E5E3E
:101CE60011D008260550D8B0053C09260650D8B0B4
:101CF600063C0A260750D8B0073C0B26E86AD8B03F
:101D0600010E0E2600360C2ED1D700B00ED0045090
:101D160008260550D8B0053C09260650D8B0063C22
:0C1D26000A260750D8B0073C0B2612001C
:101D320003017B6B7C6B270E7C5D02E1100E7B5DE9
:101D4200D8B0AED0000E000A02E1000E7A1919E1F5
:101D52008CEC00F0010E04010D6F0E6B0F6B106B1B
:101D6200116BFF0E126F23EC00F000C07DF38EECBE
:101D720000F003017D51000A03E11A6A006A92D061
:101D82008CD08CEC00F0370E04010D6F0E6B0F6BD4
:101D9200106B116BFF0E126F23EC00F000C07DF38D
:101DA2008EEC00F003017D51010AD8A475D08CECB1
:101DB20000F0290E04010D6F000E0E6F000E0F6F62
:101DC200000E106F400E116FFF0E126F23EC00F029
:101DD20000C07DF38EEC00F003017D51000A5BE14F
:101DE200000E000A02E1020E7A1951E18CEC00F0B9
:101DF2003A0E04010D6F0E6B0F6B106B116BFF0E21
:101E0200126F23EC00F000C07DF387C0E1FF88C0B1
:101E1200E2FFFF0EE66E85C000F086C001F017EC0F
:101E220000F000C07EF387C0E1FF88C0E2FFFF0E32
:101E3200E66E85C000F086C001F017EC00F087C0A6
:101E4200E1FF88C0E2FFFF0EE66E85C000F086C0AB
:101E520001F017EC00F087C0E1FF88C0E2FFFF0E3F
:101E6200E66E85C000F086C001F017EC00F08EEC43
:101E720000F003017D51000A09E17EAD03D0040E9A
:101E82001A6E02D0030E1A6E006A0CD004D0010E34
:101E92001A6E006A07D001D003D07B4B7C2B4BD744
:061EA200010E006E1200AB
:101EA800010E03011E6F060E006E000E016E80C04B
:101EB80004F0000E056E7CEC01F0E20E0026000E28
:101EC8000122020E0024E96E000E0120EA6EEECF18
:101ED80001F4EECF02F4EECF03F4EECF04F41E0EBD
:101EE8000401056F010E066F96EC02F0005206E041
:101EF800100E0101006FFF0E006EBBD0290E03010A
:101F0800FE6F010EFF6FA4EC01F000C003F101C0E9
:101F180004F12BC105F1000E0101066F2C0E03011F
:101F2800FE6F010EFF6FA4EC01F000C007F101C0C5
:101F380008F12EC109F12F0EFE6F010EFF6FA4EC00
:101F480001F000C00AF101C00BF1340EFE6F010E62
:101F5800FF6FA4EC01F000C00CF101C00DF1060EFA
:101F6800006E000E016E80C004F0000E056E7CEC61
:101F780001F0E20E0026000E0122020E0024E96E96
:101F8800000E0120EA6E01010751EE2403017A6F69
:101F980001010851EE2003017B6F000EEE207C6FDB
:101FA800000EEE207D6F7AC30EF17BC30FF17CC368
:101FB80010F17DC311F109C100F0000E016E0CC1D2
:101FC80004F00DC105F07CEC01F000507A270150B7
:101FD8007B23000E7C237D237AC312F17BC313F18C
:101FE8007CC314F17DC315F1050E026E0AC100F021
:101FF8000BC101F0025005E0003600900136FF0FDA
:10200800FAD7030103C104F004C105F0E5EC00F0C0
:10201800000E026E036E7A5100267B5101227C511C
:1020280002227D51032200C016F101C017F102C03F
:1020380018F103C019F103C1D3F004C1D4F00001B1
:10204800D433D333D49F050E006E03C17DF004C191
:102058007EF0005005E07E327D327E9EFF0FFAD77B
:1020680012C1FAF013C1FBF014C1FCF015C1FDF068
:04207800006A1200E8
:10207C007AC3DDF37BC3DEF38FEC0AF0005206E08B
:10208C00120E0101006FFF0E006E0AD2D50E030175
:10209C00DD6F000EDE6F7AC3DFF37BC3E0F371EC10
:1020AC000AF039513A1121E01C0E006E000E016E3F
:1020BC007FC004F0000E7FBEFF0E056E7CEC01F0BD
:1020CC009B0E0024E16E000E0120E26E1C0E006ED1
:1020DC001F0EE96E030EEA6EEECFE6FF0006FCE182
:1020EC000301396B3A6BFF0E7F6EC80E0401016F52
:1020FC00030E026FD50E036F000E046F0D0E056FED
:10210C00000E066F54EC01F0D50E0301DD6F000ECE
:10211C00DE6FA20EDF6F030EE06F83EC09F0800E12
:10212C000018016E800E000A015C69E203017DAFAC
:10213C0060D0D56BD66BD76BD86BD96BDA6B580E6E
:10214C007D15006E06E0080E0101006FFF0E006E9B
:10215C00A7D17E0E0401016F030E026F036B200EDC
:10216C00046F000E056F36EC01F07F0E03017D1538
:10217C00006E00C089F37E0E0401016F030E026F26
:10218C00D50E036F000E046F0B0E056F000E066F5D
:10219C0054EC01F07E0E0301DD6F030EDE6FD70EE3
:1021AC00DF6F030EE06FD50EE16F030EE26F63EC91
:1021BC000BF0800E0018016E800E000A015C03E229
:1021CC00FF0E006E6DD1C80E0301DD6F030EDE6FC6
:1021DC00A20EDF6F030EE06F83EC09F0800E001887
:1021EC00016E800E000A015C03E2FF0E006E58D1F6
:1021FC0006D00D0E0101006FFF0E006E51D1580E6E
:10220C000301AF15006E06E0080E0101006FFF0E12
:10221C00006E46D103019E6B9F6B000E9F5D02E129
:10222C00020E9E5D4BE21C0E006E000E016E9EC3F4
:10223C0004F09FC305F07CEC01F09B0E0026000E11
:10224C00012200C0A0F301C0A1F31A0E0024E96E14
:10225C00000E0120EA6EEE50EE102DE0060EA025C9
:10226C00D96E000EA121DA6EDECF01F0DECF02F0C6
:10227C00C151021802E10150C0191DE11A0EA0252E
:10228C00E16E000EA121E26E7CC3E6FF000EE66E4D
:10229C001C0E006E1F0EE16E030EE26EA0C3E9FF72
:1022AC00A1C3EAFFEECFE6FF0006FCE19EC37FF080
:1022BC009EC300F0F5D09E4B9F2BAFD79E6B9F6BB0
:1022CC00000E9F5D02E1020E9E5DD8B0E4D01C0EA4
:1022DC00006E000E016E9EC304F09FC305F07CECF3
:1022EC0001F09B0E0026000E01221A0E0024E96E4E
:1022FC00000E0120EA6EEECF00F0EECF01F00050A0
:10230C000110D8A4C4D01C0E006E000E016E9EC32A
:10231C0004F09FC305F07CEC01F09B0E0026000E30
:10232C00012200C0A0F301C0A1F300C001F401C060
:10233C0002F40401036B1C0E046F000E056F36ECE7
:10234C0001F0060E0301A025026E000EA121036E02
:10235C000C0EA025006E000EA121016E00C0E1FF45
:10236C0001C0E2FFC0C3E6FFC1C3E6FF00C0E9FF46
:10237C0001C0EAFF02C0E1FF03C0E2FFEECFE6FFBF
:10238C00EECFE6FF1A0EA025E16E000EA121E26E43
:10239C007CC3E6FF000EE66EA0C3E1FFA1C3E2FF23
:1023AC00C2C3E6FFC3C3E6FFC4C3E6FFC5C3E6FF73
:1023BC00040EA025E16E000EA121E26E050E026E48
:1023CC00C6C300F0C7C301F0025005E00036009010
:1023DC000136FF0FFAD700C0E6FF01C0E6FF160E6C
:1023EC00A025E16E000EA121E26EBCC3E6FFBDC3C9
:1023FC00E6FFBEC3E6FFBFC3E6FF0E0EA025DB6FF4
:10240C00000EA121DC6F0C0EA025E96E000EA1219F
:10241C00EA6EEECF00F0EECF01F0000E026E036E0E
:10242C00020E005E000E015A025A035A05C104F056
:10243C0006C105F0000E066E076E4AEC09F00101AC
:10244C00165100261751012218510222195103224C
:10245C00DBC3E1FFDCC3E2FF00C0E6FF01C0E6FF27
:10246C0002C0E6FF03C0E6FF1C0E006E1F0EE16EFD
:10247C00030EE26EA0C3E9FFA1C3EAFFEECFE6FFB5
:10248C000006FCE19EC37FF09EC300F009D003015F
:10249C009E4B9F2B15D7090E0101006FFE0E006E8F
:0224AC0012001C
:1024AE00030139513A110AE1070E0101006FFF0EC7
:1024BE00006EFF0E016E026E036EF2D0010E03016E
:1024CE001E6F7D51385D08E17C51375D05E17B5112
:1024DE00365D02E17A51355D09E235C327F336C325
:1024EE0028F337C329F338C32AF308D07AC327F366
:1024FE007BC328F37CC329F37DC32AF303C104F005
:10250E0004C105F0000E066E076E27C300F028C347
:10251E0001F029C302F02AC303F023EC0DF005C12C
:10252E0004F006C105F0000E066E076E23EC0DF0EA
:10253E0000C07EF301C07FF325C32BF326C32CF31B
:10254E00000E006E7F51005C02E17E51000826E213
:10255E002BC3DDF32CC3DEF3F7EC0AF000C02BF334
:10256E0001C02CF30150FF0A02E1FF0E001810E12A
:10257E0035C327F336C328F337C329F338C32AF3F9
:10258E000A0E0101006F006A016A026A036A88D0AE
:10259E00010E03017E5F000E7F5BD2D703C104F0F4
:1025AE0004C105F0000E066E076E27C300F028C3A7
:1025BE0001F029C302F02AC303F023EC0DF005C18C
:1025CE0004F006C105F0000E066E076E23EC0DF04A
:1025DE0008C000F009C001F00AC002F00BC003F001
:1025EE0000C080F301C081F302C082F303C083F305
:1025FE0080C331F381C332F32BC300F02CC301F03F
:10260E00000E026E036E020E005E000E015A025A9A
:10261E00035A05C104F006C105F0000E066E076EE2
:10262E004AEC09F0010116510026175101221851EA
:10263E0002221951032203018051002681510122E9
:10264E00000E0222032200C02DF301C02EF302C0A1
:10265E002FF303C030F303C104F004C105F0000EE4
:10266E00066E076E27C300F028C301F029C302F0DF
:10267E002AC303F023EC0DF008C000F009C001F0EE
:10268E000AC002F00BC003F000C033F301C034F3F4
:10269E0027C300F028C301F029C302F02AC303F0B8
:0226AE00120018
:1026B0008BC0E1FF8CC0E2FF7AC3E6FF89C000F067
:0A26C0008AC001F017EC00F01200D0
:1026CA000301776B010E1E6F0401016B026B036B32
:1026DA00046B1E0E056F010E066F96EC02F0005297
:1026EA0006E0100E0101006FFF0E006EB1D11E0E42
:1026FA0003016F6F010E706FFE0E6F25E96E010EFA
:10270A007021EA6EEE50550A03E0010E006EA0D168
:10271A00FF0E6F25E96E010E7021EA6EEE50AA0ACD
:10272A0003E0010E006E94D1776B6FC3E9FF70C3AB
:10273A00EAFFEE50E90A02E1010E776F6FC3E9FF83
:10274A0070C3EAFFEE50EB0A0BE1020E6F25E96E49
:10275A00000E7021EA6EEE50900A02E1010E776FC8
:10276A007753D8B4BDD0736B746B756B766BE20E0E
:10277A006D6F000E6E6F6DC3E1FF6EC3E2FF800ED8
:10278A00E66E020E6D25E16E000E6E21E26EE66ABD
:10279A00E66AE66AE66A54EC0FF0800E0018016EEB
:1027AA00800E000A015C03E2010E006E51D10101A4
:1027BA000C510D11D8B487D032513111006E1FE07F
:1027CA0032C173F3000E0301746F756F766F75C3B0
:1027DA0076F374C375F373C374F3736B01013151E8
:1027EA0003017327000E742375237623010E6D25CA
:1027FA00E16E000E6E21E26E040EE66E11D0030148
:10280A003EC173F33FC174F340C175F341C176F31E
:10281A00010E6D25E16E000E6E21E26E060EE66E69
:10282A0073C300F074C301F075C302F076C303F0FA
:10283A0001011651005E1751015A1851025A1951D5
:10284A00035A05C104F006C105F0000E066E076EB4
:10285A0023EC0DF000C073F301C074F302C075F3EA
:10286A0003C076F3000E035C08E1000E025C05E18A
:10287A000F0E015C02E1F50E005C0CE2010E030191
:10288A006D25E16E000E6E21E26E010EE66E010EFE
:10289A00006EDED003017651000808E17551000888
:1028AA0005E17451FF0802E17351F5080BE2010ECC
:1028BA006D25E16E000E6E21E26E0B0EE66E010EC4
:1028CA00006EC6D00CD00301010E6D25E16E000E1C
:1028DA006E21E26E0B0EE66E010E006EB9D0B7D015
:1028EA00DC0E6F6F020E706F716B726B000E725D91
:1028FA0002E1040E715D57E2060E006E000E016ED3
:10290A0071C304F072C305F07CEC01F0E20E0026FC
:10291A00000E012200C06DF301C06EF36FC3E9FF20
:10292A0070C3EAFF00C0E1FF01C0E2FFEECFE6FF9D
:10293A00040E6F25006E000E7021016E00C06FF349
:10294A0001C070F3010E6D25E16E000E6E21E26E7C
:10295A0000C0E9FF01C0EAFFEECFE6FF040E6F25D3
:10296A00006E000E7021016E00C06FF301C070F39B
:10297A00020E6D25786F000E6E21796F00C0FEF38E
:10298A0001C0FFF3C9EC01F078C3E1FF79C3E2FFAC
:10299A0000C0E6FF01C0E6FF02C0E6FF03C0E6FF93
:1029AA00714B722BA3D7060E006E000E016E80C00B
:1029BA0004F0000E056E7CEC01F0E20E0026000E1B
:1029CA000122010E0024E96E000E0120EA6EEE508B
:1029DA00040A31E0060E006E000E016E80C004F09B
:1029EA00000E056E7CEC01F0E20E0026000E0122BC
:1029FA00010E0024E96E000E0120EA6EEE50060A6E
:102A0A001AE0060E006E000E016E80C004F0000E81
:102A1A00056E7CEC01F0E20E0026000E0122010E8A
:102A2A000024E96E000E0120EA6EEE500E0A03E061
:102A3A00010E006E0DD054EC0FF0800E0018016EDE
:102A4A00800E000A015C03E2010E006E01D0006AEA
:022A5A00120068
:102A5C00010E03011E6F1E0E0401016F010E026FA9
:102A6C00036B000E046F020E056F36EC01F00301D0
:102A7C006D6B020E6D5D1BE21C0E006E000E016E86
:102A8C006DC304F0000E056E7CEC01F09B0E00246F
:102A9C000401016F000E0120026F036B1C0E046F0A
:102AAC00000E056F36EC01F003016D2BE2D71F0E03
:102ABC000401016F030E026F036B1C0E046F000EFA
:102ACC00056F36EC01F003016D6B040E6D5D1BE2BE
:102ADC00060E006E000E016E6DC304F0000E056E46
:102AEC007CEC01F0E20E00240401016F000E0120C9
:102AFC00026F036B060E046F000E056F36EC01F0CF
:102B0C0003016D2BE2D7030E0401016F010E026F5E
:102B1C00036B170E046F000E056F36EC01F01E0EE2
:102B2C000101016F030E026F0001806BFA6BFB6BEE
:102B3C00FC6BFD6B0101006B0001FE6BFF6B916B7D
:102B4C00926B936B946BFF0E7F6ED50E0401016F2D
:102B5C00000E026F036B0D0E046F000E056F36EC4A
:0E2B6C0001F00001956B966B976B986B120051
:102B7A00050E1A6E94908EEC00F003016D6B6E6B6D
:102B8A00000E6E5D02E10A0E6D5D10E287C0E1FF84
:102B9A0088C0E2FFFF0EE66E85C000F086C001F035
:102BAA0017EC00F003016D4B6E2BEAD78CEC00F0AA
:102BBA0004010D6B0E6B0F6B106B116B950E126F80
:102BCA0023EC00F000C06FF38EEC00F003016F51AC
:102BDA00010A03E0010E006E81D08CEC00F0080EB1
:102BEA0004010D6FAA0E0E6F010E0F6F000E106F0B
:102BFA00116F870E126F23EC00F000C06FF387C0CD
:102C0A00E1FF88C0E2FFFF0EE66E85C000F086C0D5
:102C1A0001F017EC00F087C0E1FF88C0E2FFFF0E69
:102C2A00E66E85C000F086C001F017EC00F087C0A0
:102C3A00E1FF88C0E2FFFF0EE66E85C000F086C0A5
:102C4A0001F017EC00F087C0E1FF88C0E2FFFF0E39
:102C5A00E66E85C000F086C001F017EC00F08EEC3D
:102C6A0000F003016F51010A0AE0010E7A6F99EC34
:102C7A000EF0005203E07A6B99EC0EF004D0020ECB
:102C8A007A6F99EC0EF0000E000A02E1050E1A188E
:102C9A0003E1020E006E22D0000E000A02E1040EC9
:102CAA001A181BE08CEC00F0100E04010D6F000ED8
:102CBA000E6F020E0F6F000E106F116FFF0E126F64
:102CCA0023EC00F000C06FF38EEC00F003016F51AB
:0E2CDA00000A03E0030E006E01D0006A120033
:102CE8000301706B6DC3E9FF6EC3EAFFEECF6FF3AC
:102CF8006F51000A0EE06FC37AF3D6DC0301702B24
:102D080070516D25E96E000E6E21EA6EEECF6FF3FD
:042D1800EFD71200DF
:102D1C00030139B104D0070E0101006FE5D00301A6
:102D2C0038512A5D08E13751295D05E13651285D9E
:102D3C0002E13551275D04E30B0E0101006FD4D085
:102D4C0003013451020A02E1000E3319D8A488D0D1
:102D5C00336B346B010E3125006E000E3221016E87
:102D6C0000C031F301C032F332510101061903E105
:102D7C0005510301311947E10301316B326B2BC350
:102D8C00DDF32CC3DEF3F7EC0AF000C02BF301C02B
:102D9C002CF30150FF0A02E1FF0E00180CE135C3C1
:102DAC0027F336C328F337C329F338C32AF30A0EA3
:102DBC000101006F99D001012BC300F02CC301F06D
:102DCC00000E026E036E020E005E000E015A025AD5
:102DDC00035A05C104F006C105F0000E066E076E1D
:102DEC004AEC09F016510026175101221851022203
:102DFC001951032200C02DF301C02EF302C02FF392
:102E0C0003C030F315D0010E03012D25006E000E0A
:102E1C002E21016E000E2F21026E000E3021036E4A
:102E2C0000C02DF301C02EF302C02FF303C030F30A
:102E3C0003011E6B2DC301F42EC302F42FC303F444
:102E4C0030C304F41E0E0401056F010E066F96ECE0
:102E5C0002F0005204E0100E0101006F45D019D0B1
:102E6C0003011E5316E01E6B2DC301F42EC302F496
:102E7C002FC303F430C304F41E0E0401056F010EBE
:102E8C00066F96EC02F0005204E0100E0101006F88
:102E9C002BD01E0E03013325E96E010E3421EA6E90
:102EAC006DC3E1FF6EC3E2FFEECFE6FF010E3325EB
:102EBC00006E000E3421016E00C033F301C034F3F8
:102ECC00010E2725006E000E2821016E000E29210F
:102EDC00026E000E2A21036E00C027F301C028F3F6
:0A2EEC0002C029F303C02AF312000C
:102EF600030139B10CD06DC3E1FF6EC3E2FFE66A90
:102F0600E66AE66AE66A070E0101006F13D003015E
:102F16007A6B7B6B7C6B7D6B57EC12F06DC3E1FFBC
:102F26006EC3E2FF35C3E6FF36C3E6FF37C3E6FFEF
:062F360038C3E6FF1200A3
:102F3C007FC070F300C172F36DC37AF36EC37BF381
:102F4C00070E03017C6F6FC37DF33EEC10F000C0E5
:102F5C0071F3800E0018016E800E000A015C38E2DD
:102F6C0003017151FE0A32E172C300F11C0E006EB6
:102F7C00000E016E70C304F0000E70BFFF0E056EE4
:102F8C007CEC01F09B0E0026000E01221A0E002490
:102F9C00E16E000E0120E26EE66AE66A6DC37AF31A
:102FAC006EC37BF3070E7C6F6FC37DF33EEC10F0AA
:102FBC0000C071F3800E0018016E800E000A015CD7
:102FCC0002E2006A07D0020E006E04D0006A02D042
:062FDC00010E006E120060
:102FE2001C0E0001856F000E866F150E876F040E92
:102FF200886FF40E816F120E826FED0E836F030ED7
:10300200846F949A03013F51040A02E1948601D02D
:1030120094969488C66AC79CC79E3F51C612415176
:10302200C6124051C712415305E04251000AD8B4BA
:0E303200C78C03D04253D8A4C78CC68A1200A4
:10304000E60E0001896F120E8A6FED0E8B6F030E74
:103050008C6FFF0E8D6FFF0E8E6F000E8F6F000E48
:10306000906FFF0E01011A6FFF0E1B6F000E1C6F99
:10307000000E1D6FFF0E03013B6FFF0E3C6F000E35
:103080003D6F000E3E6FAC8A900EAB6E948E949C9A
:0C3090009EAA03D0AECF00F0FBD71200C8
:10309C0003016B6B6C6B5A0E6D6F000E6E6F6F6B6A
:1030AC0047DF990E03016D6F000E6E6F1EDF03017B
:1030BC00616B626B00019A510301625D04E10001D6
:1030CC0099510301615DD8B07CD1430E6D6F030E35
:1030DC006E6F1EDE030143515B0A0CE1000E6C198E
:1030EC0002E1000E6B1906E1010E6B6F000E6C6FA6
:1030FC00656B666B43512D0A4BE1000E6C1902E1B6
:10310C00010E6B1945E13FC3EDF340C3EEF36DECDB
:10311C0008F06651011802E10050651932E1636B49
:10312C00646B000E645D02E1150E635D29E2440ED2
:10313C006325E96E030E6421EA6E63513F25D96E57
:10314C0064514021DA6EEE50DE1806E0740E6D6F9D
:10315C00000E6E6FC3DD14D0440E6325E96E030EB2
:10316C006421EA6EEE50000A08E1020E6B6F000E4D
:10317C006C6F676B686B849203D0634B642BD1D7F5
:10318C0007D06B0E6D6F000E6E6FA8DD6B6B6C6BEA
:10319C0043512B0A4BE1000E6C1902E1020E6B1924
:1031AC0045E141C3EDF342C3EEF36DEC08F0685119
:1031BC00011802E10050671932E1636B646B000E79
:1031CC00645D02E1070E635D29E2580E6325E96E2A
:1031DC00030E6421EA6E63514125D96E645142217C
:1031EC00DA6EEE50DE1806E02A0E6D6F000E6E6F72
:1031FC0075DD14D0580E6325E96E030E6421EA6E5A
:10320C00EE50000A08E1030E6B6F000E6C6F696BD9
:10321C006A6B849403D0634B642BD1D707D0210EF7
:10322C006D6F000E6E6F5ADD6B6B6C6B43515D0AEC
:10323C00D8A488D0000E6C1902E1030E6B194AE178
:10324C00330E6D6F000E6E6F49DD636B646B000E99
:10325C00645D02E1140E635D18E2440E6325E96EB1
:10326C00030E6421EA6EEE50000A01E10ED0440E0A
:10327C006325E96E030E6421EA6EEECF7AF358EC07
:10328C0013F00301634B642BE2D74A0E6D6F000EF3
:10329C006E6F24DD636B646B000E645D02E1030EE4
:1032AC00635D18E25E0E6325E96E030E6421EA6E1F
:1032BC00EE50000A01E10ED05E0E6325E96E030E9E
:1032CC006421EA6EEECF7AF358EC13F00301634BF2
:1032DC00642BE2D76B6B6C6B636B646B000E645D81
:1032EC0002E1140E635D0AE2440E6325E16E030EE7
:1032FC006421E26EE66A634B642BF0D7636B646BFC
:10330C00000E645D02E1060E635D0AE2580E632551
:10331C00E16E030E6421E26EE66A634B642BF0D718
:10332C00636B646B000E645D02E1030E635D0AE285
:10333C005E0E6325E16E030E6421E26EE66A634B5A
:10334C00642BF0D743515B0A39E043512D0A36E028
:10335C0043512B0A33E043515D0A30E0000E6C19E7
:10336C0002E1010E6B190AE1440E6525E16E030EB4
:10337C006621E26E43C3E6FF654B662B000E6C19AB
:10338C0002E1020E6B190AE1580E6725E16E030E7D
:10339C006821E26E43C3E6FF674B682B000E6C1985
:1033AC0002E1030E6B190AE15E0E6925E16E030E54
:1033BC006A21E26E43C3E6FF694B6A2B614B622BB9
:0433CC0079D612009C
:1033D00003013F6BBDEC15F03F2B005204E0320EB1
:1033E0003F5D01E2F7D7320E3F5D03E3FF0E006E53
:0C33F00004D02EEC15F065EC13F0120078
:1033FC000900F5CFE6FF0006FBE10106F9E112003A
:10340C00DF0E926ED80E946EFF0E956EF80E966EC1
:10341C00829082948292809A849084928494829AEC
:10342C000E0EC16E070EB46E640ED36E9B6AB88618
:10343C00B06A670EAF6EAC84FDDD820E0C6EDD0ED5
:10344C000D6E0D2EFED70C2EFCD7000000001200C6
:10345C00020E03013F6F406B416B010E426FBBDDEF
:10346C00B1DF0050000A20E103013F6B406B416B60
:10347C00010E426FB0DD060E0B6E130E0C6EAD0E10
:10348C000D6E0D2EFED70C2EFCD70B2EFAD700008E
:10349C0000001B0E3F6F000E406F640E416F000E5C
:1034AC00426FF6DD829401D082920D0E0B6EAF0E40
:1034BC000C6EB60E0D6E0D2EFED70C2EFCD70B2EF1
:0634CC00FAD70000120017
:1034D200C9EC1AF09ADF828082848282808A848098
:1034E20084828484828A060E0B6E130E0C6EAD0EDD
:1034F2000D6E0D2EFED70C2EFCD70B2EFAD7000028
:103502000000ABDF04008270060E0B6E130E0C6E11
:10351200AD0E0D6E0D2EFED70C2EFCD70B2EFAD74C
:0835220000000000EFD7FFD705
:1035920010EE15F0680E006E010E016E2A0EF66E28
:0E35A200350EF76E000EF86EFEEC19F01200FA
:02352A002E0071
:03352C002E2E0040
:01352F00009B
:0635300061646D696E008C
:093536000A4552524F3A203700B9
:09353F000A4552524F3A203800AF
:103548000A5553554152494F20415554454E544907
:073558004341444F3A2000FB
:10355F00202D205045524D4953534F45533A20008B
:0A356F0055534552532E5458540092
:073579003635343332310016
:093580000A4552524F3A20350071
:093589000A4552524F3A20360067
:020000040030CA
:0D000100011A1EFF8381FF0FC00FE00F40AA
:00000001FF
